{
  "contractName": "SmartContract",
  "abi": [
    {
      "inputs": [],
      "stateMutability": "nonpayable",
      "type": "constructor"
    },
    {
      "anonymous": false,
      "inputs": [
        {
          "indexed": true,
          "internalType": "address",
          "name": "owner",
          "type": "address"
        },
        {
          "indexed": true,
          "internalType": "address",
          "name": "approved",
          "type": "address"
        },
        {
          "indexed": true,
          "internalType": "uint256",
          "name": "tokenId",
          "type": "uint256"
        }
      ],
      "name": "Approval",
      "type": "event"
    },
    {
      "anonymous": false,
      "inputs": [
        {
          "indexed": true,
          "internalType": "address",
          "name": "owner",
          "type": "address"
        },
        {
          "indexed": true,
          "internalType": "address",
          "name": "operator",
          "type": "address"
        },
        {
          "indexed": false,
          "internalType": "bool",
          "name": "approved",
          "type": "bool"
        }
      ],
      "name": "ApprovalForAll",
      "type": "event"
    },
    {
      "anonymous": false,
      "inputs": [
        {
          "indexed": true,
          "internalType": "address",
          "name": "from",
          "type": "address"
        },
        {
          "indexed": true,
          "internalType": "address",
          "name": "to",
          "type": "address"
        },
        {
          "indexed": true,
          "internalType": "uint256",
          "name": "tokenId",
          "type": "uint256"
        }
      ],
      "name": "Transfer",
      "type": "event"
    },
    {
      "inputs": [
        {
          "internalType": "address",
          "name": "to",
          "type": "address"
        },
        {
          "internalType": "uint256",
          "name": "tokenId",
          "type": "uint256"
        }
      ],
      "name": "approve",
      "outputs": [],
      "stateMutability": "nonpayable",
      "type": "function"
    },
    {
      "inputs": [
        {
          "internalType": "address",
          "name": "owner",
          "type": "address"
        }
      ],
      "name": "balanceOf",
      "outputs": [
        {
          "internalType": "uint256",
          "name": "",
          "type": "uint256"
        }
      ],
      "stateMutability": "view",
      "type": "function",
      "constant": true
    },
    {
      "inputs": [
        {
          "internalType": "uint256",
          "name": "tokenId",
          "type": "uint256"
        }
      ],
      "name": "getApproved",
      "outputs": [
        {
          "internalType": "address",
          "name": "",
          "type": "address"
        }
      ],
      "stateMutability": "view",
      "type": "function",
      "constant": true
    },
    {
      "inputs": [
        {
          "internalType": "address",
          "name": "owner",
          "type": "address"
        },
        {
          "internalType": "address",
          "name": "operator",
          "type": "address"
        }
      ],
      "name": "isApprovedForAll",
      "outputs": [
        {
          "internalType": "bool",
          "name": "",
          "type": "bool"
        }
      ],
      "stateMutability": "view",
      "type": "function",
      "constant": true
    },
    {
      "inputs": [],
      "name": "name",
      "outputs": [
        {
          "internalType": "string",
          "name": "",
          "type": "string"
        }
      ],
      "stateMutability": "view",
      "type": "function",
      "constant": true
    },
    {
      "inputs": [
        {
          "internalType": "uint256",
          "name": "tokenId",
          "type": "uint256"
        }
      ],
      "name": "ownerOf",
      "outputs": [
        {
          "internalType": "address",
          "name": "",
          "type": "address"
        }
      ],
      "stateMutability": "view",
      "type": "function",
      "constant": true
    },
    {
      "inputs": [
        {
          "internalType": "address",
          "name": "from",
          "type": "address"
        },
        {
          "internalType": "address",
          "name": "to",
          "type": "address"
        },
        {
          "internalType": "uint256",
          "name": "tokenId",
          "type": "uint256"
        }
      ],
      "name": "safeTransferFrom",
      "outputs": [],
      "stateMutability": "nonpayable",
      "type": "function"
    },
    {
      "inputs": [
        {
          "internalType": "address",
          "name": "from",
          "type": "address"
        },
        {
          "internalType": "address",
          "name": "to",
          "type": "address"
        },
        {
          "internalType": "uint256",
          "name": "tokenId",
          "type": "uint256"
        },
        {
          "internalType": "bytes",
          "name": "_data",
          "type": "bytes"
        }
      ],
      "name": "safeTransferFrom",
      "outputs": [],
      "stateMutability": "nonpayable",
      "type": "function"
    },
    {
      "inputs": [
        {
          "internalType": "address",
          "name": "operator",
          "type": "address"
        },
        {
          "internalType": "bool",
          "name": "approved",
          "type": "bool"
        }
      ],
      "name": "setApprovalForAll",
      "outputs": [],
      "stateMutability": "nonpayable",
      "type": "function"
    },
    {
      "inputs": [],
      "name": "symbol",
      "outputs": [
        {
          "internalType": "string",
          "name": "",
          "type": "string"
        }
      ],
      "stateMutability": "view",
      "type": "function",
      "constant": true
    },
    {
      "inputs": [
        {
          "internalType": "uint256",
          "name": "index",
          "type": "uint256"
        }
      ],
      "name": "tokenByIndex",
      "outputs": [
        {
          "internalType": "uint256",
          "name": "",
          "type": "uint256"
        }
      ],
      "stateMutability": "view",
      "type": "function",
      "constant": true
    },
    {
      "inputs": [
        {
          "internalType": "address",
          "name": "owner",
          "type": "address"
        },
        {
          "internalType": "uint256",
          "name": "index",
          "type": "uint256"
        }
      ],
      "name": "tokenOfOwnerByIndex",
      "outputs": [
        {
          "internalType": "uint256",
          "name": "",
          "type": "uint256"
        }
      ],
      "stateMutability": "view",
      "type": "function",
      "constant": true
    },
    {
      "inputs": [],
      "name": "totalSupply",
      "outputs": [
        {
          "internalType": "uint256",
          "name": "",
          "type": "uint256"
        }
      ],
      "stateMutability": "view",
      "type": "function",
      "constant": true
    },
    {
      "inputs": [
        {
          "internalType": "address",
          "name": "from",
          "type": "address"
        },
        {
          "internalType": "address",
          "name": "to",
          "type": "address"
        },
        {
          "internalType": "uint256",
          "name": "tokenId",
          "type": "uint256"
        }
      ],
      "name": "transferFrom",
      "outputs": [],
      "stateMutability": "nonpayable",
      "type": "function"
    },
    {
      "inputs": [
        {
          "internalType": "address",
          "name": "minterAddress",
          "type": "address"
        },
        {
          "internalType": "string",
          "name": "_tokenURI",
          "type": "string"
        }
      ],
      "name": "mint",
      "outputs": [
        {
          "internalType": "uint256",
          "name": "",
          "type": "uint256"
        }
      ],
      "stateMutability": "payable",
      "type": "function",
      "payable": true
    },
    {
      "inputs": [
        {
          "internalType": "address",
          "name": "_minterAddress",
          "type": "address"
        }
      ],
      "name": "getOwnerNFTs",
      "outputs": [
        {
          "internalType": "address",
          "name": "",
          "type": "address"
        },
        {
          "internalType": "string[]",
          "name": "",
          "type": "string[]"
        }
      ],
      "stateMutability": "view",
      "type": "function",
      "constant": true
    },
    {
      "inputs": [
        {
          "internalType": "bytes4",
          "name": "interfaceId",
          "type": "bytes4"
        }
      ],
      "name": "supportsInterface",
      "outputs": [
        {
          "internalType": "bool",
          "name": "",
          "type": "bool"
        }
      ],
      "stateMutability": "view",
      "type": "function",
      "constant": true
    },
    {
      "inputs": [
        {
          "internalType": "uint256",
          "name": "_tokenId",
          "type": "uint256"
        }
      ],
      "name": "tokenURI",
      "outputs": [
        {
          "internalType": "string",
          "name": "",
          "type": "string"
        }
      ],
      "stateMutability": "view",
      "type": "function",
      "constant": true
    }
  ],
  "bytecode": "0x60806040523480156200001157600080fd5b506040518060400160405280600e81526020017f536d61727420436f6e74726163740000000000000000000000000000000000008152506040518060400160405280600281526020017f5343000000000000000000000000000000000000000000000000000000000000815250816000908051906020019062000096929190620000b8565b508060019080519060200190620000af929190620000b8565b505050620001cd565b828054620000c69062000168565b90600052602060002090601f016020900481019282620000ea576000855562000136565b82601f106200010557805160ff191683800117855562000136565b8280016001018555821562000136579182015b828111156200013557825182559160200191906001019062000118565b5b50905062000145919062000149565b5090565b5b80821115620001645760008160009055506001016200014a565b5090565b600060028204905060018216806200018157607f821691505b602082108114156200019857620001976200019e565b5b50919050565b7f4e487b7100000000000000000000000000000000000000000000000000000000600052602260045260246000fd5b61324480620001dd6000396000f3fe608060405260043610610126576000357c0100000000000000000000000000000000000000000000000000000000900480636352211e116100b2578063a22cb46511610081578063a22cb465146103d3578063b88d4fde146103fc578063c87b56dd14610425578063d0def52114610462578063e985e9c51461049257610126565b80636352211e146102f057806370a082311461032d5780638c0175721461036a57806395d89b41146103a857610126565b806318160ddd116100f957806318160ddd146101f957806323b872dd146102245780632f745c591461024d57806342842e0e1461028a5780634f6ccce7146102b357610126565b806301ffc9a71461012b57806306fdde0314610168578063081812fc14610193578063095ea7b3146101d0575b600080fd5b34801561013757600080fd5b50610152600480360381019061014d91906123d6565b6104cf565b60405161015f9190612c37565b60405180910390f35b34801561017457600080fd5b5061017d6104e1565b60405161018a9190612c52565b60405180910390f35b34801561019f57600080fd5b506101ba60048036038101906101b59190612428565b610573565b6040516101c79190612ba0565b60405180910390f35b3480156101dc57600080fd5b506101f760048036038101906101f2919061239a565b6105f8565b005b34801561020557600080fd5b5061020e610710565b60405161021b9190612e74565b60405180910390f35b34801561023057600080fd5b5061024b60048036038101906102469190612240565b61071d565b005b34801561025957600080fd5b50610274600480360381019061026f919061239a565b61077d565b6040516102819190612e74565b60405180910390f35b34801561029657600080fd5b506102b160048036038101906102ac9190612240565b610822565b005b3480156102bf57600080fd5b506102da60048036038101906102d59190612428565b610842565b6040516102e79190612e74565b60405180910390f35b3480156102fc57600080fd5b5061031760048036038101906103129190612428565b6108d9565b6040516103249190612ba0565b60405180910390f35b34801561033957600080fd5b50610354600480360381019061034f91906121db565b61098b565b6040516103619190612e74565b60405180910390f35b34801561037657600080fd5b50610391600480360381019061038c91906121db565b610a43565b60405161039f929190612c07565b60405180910390f35b3480156103b457600080fd5b506103bd610b66565b6040516103ca9190612c52565b60405180910390f35b3480156103df57600080fd5b506103fa60048036038101906103f5919061230a565b610bf8565b005b34801561040857600080fd5b50610423600480360381019061041e919061228f565b610d79565b005b34801561043157600080fd5b5061044c60048036038101906104479190612428565b610ddb565b6040516104599190612c52565b60405180910390f35b61047c60048036038101906104779190612346565b610e80565b6040516104899190612e74565b60405180910390f35b34801561049e57600080fd5b506104b960048036038101906104b49190612204565b610ed6565b6040516104c69190612c37565b60405180910390f35b60006104da82610f6a565b9050919050565b6060600080546104f0906130e2565b80601f016020809104026020016040519081016040528092919081815260200182805461051c906130e2565b80156105695780601f1061053e57610100808354040283529160200191610569565b820191906000526020600020905b81548152906001019060200180831161054c57829003601f168201915b5050505050905090565b600061057e82610fe4565b6105bd576040517f08c379a00000000000000000000000000000000000000000000000000000000081526004016105b490612dd4565b60405180910390fd5b6004600083815260200190815260200160002060009054906101000a900473ffffffffffffffffffffffffffffffffffffffff169050919050565b6000610603826108d9565b90508073ffffffffffffffffffffffffffffffffffffffff168373ffffffffffffffffffffffffffffffffffffffff161415610674576040517f08c379a000000000000000000000000000000000000000000000000000000000815260040161066b90612e14565b60405180910390fd5b8073ffffffffffffffffffffffffffffffffffffffff16610693611050565b73ffffffffffffffffffffffffffffffffffffffff1614806106c257506106c1816106bc611050565b610ed6565b5b610701576040517f08c379a00000000000000000000000000000000000000000000000000000000081526004016106f890612d34565b60405180910390fd5b61070b8383611058565b505050565b6000600880549050905090565b61072e610728611050565b82611111565b61076d576040517f08c379a000000000000000000000000000000000000000000000000000000000815260040161076490612e34565b60405180910390fd5b6107788383836111ef565b505050565b60006107888361098b565b82106107c9576040517f08c379a00000000000000000000000000000000000000000000000000000000081526004016107c090612c74565b60405180910390fd5b600660008473ffffffffffffffffffffffffffffffffffffffff1673ffffffffffffffffffffffffffffffffffffffff168152602001908152602001600020600083815260200190815260200160002054905092915050565b61083d83838360405180602001604052806000815250610d79565b505050565b600061084c610710565b821061088d576040517f08c379a000000000000000000000000000000000000000000000000000000000815260040161088490612e54565b60405180910390fd5b600882815481106108c7577f4e487b7100000000000000000000000000000000000000000000000000000000600052603260045260246000fd5b90600052602060002001549050919050565b6000806002600084815260200190815260200160002060009054906101000a900473ffffffffffffffffffffffffffffffffffffffff169050600073ffffffffffffffffffffffffffffffffffffffff168173ffffffffffffffffffffffffffffffffffffffff161415610982576040517f08c379a000000000000000000000000000000000000000000000000000000000815260040161097990612d74565b60405180910390fd5b80915050919050565b60008073ffffffffffffffffffffffffffffffffffffffff168273ffffffffffffffffffffffffffffffffffffffff1614156109fc576040517f08c379a00000000000000000000000000000000000000000000000000000000081526004016109f390612d54565b60405180910390fd5b600360008373ffffffffffffffffffffffffffffffffffffffff1673ffffffffffffffffffffffffffffffffffffffff168152602001908152602001600020549050919050565b6000606082600b60008573ffffffffffffffffffffffffffffffffffffffff1673ffffffffffffffffffffffffffffffffffffffff16815260200190815260200160002060000180805480602002602001604051908101604052809291908181526020016000905b82821015610b57578382906000526020600020018054610aca906130e2565b80601f0160208091040260200160405190810160405280929190818152602001828054610af6906130e2565b8015610b435780601f10610b1857610100808354040283529160200191610b43565b820191906000526020600020905b815481529060010190602001808311610b2657829003601f168201915b505050505081526020019060010190610aab565b50505050905091509150915091565b606060018054610b75906130e2565b80601f0160208091040260200160405190810160405280929190818152602001828054610ba1906130e2565b8015610bee5780601f10610bc357610100808354040283529160200191610bee565b820191906000526020600020905b815481529060010190602001808311610bd157829003601f168201915b5050505050905090565b610c00611050565b73ffffffffffffffffffffffffffffffffffffffff168273ffffffffffffffffffffffffffffffffffffffff161415610c6e576040517f08c379a0000000000000000000000000000000000000000000000000000000008152600401610c6590612cf4565b60405180910390fd5b8060056000610c7b611050565b73ffffffffffffffffffffffffffffffffffffffff1673ffffffffffffffffffffffffffffffffffffffff16815260200190815260200160002060008473ffffffffffffffffffffffffffffffffffffffff1673ffffffffffffffffffffffffffffffffffffffff16815260200190815260200160002060006101000a81548160ff0219169083151502179055508173ffffffffffffffffffffffffffffffffffffffff16610d28611050565b73ffffffffffffffffffffffffffffffffffffffff167f17307eab39ab6107e8899845ad3d59bd9653f200f220920489ca2b5937696c3183604051610d6d9190612c37565b60405180910390a35050565b610d8a610d84611050565b83611111565b610dc9576040517f08c379a0000000000000000000000000000000000000000000000000000000008152600401610dc090612e34565b60405180910390fd5b610dd58484848461144b565b50505050565b6060600c60008381526020019081526020016000208054610dfb906130e2565b80601f0160208091040260200160405190810160405280929190818152602001828054610e27906130e2565b8015610e745780601f10610e4957610100808354040283529160200191610e74565b820191906000526020600020905b815481529060010190602001808311610e5757829003601f168201915b50505050509050919050565b600066038d7ea4c68000341015610e9657600080fd5b610ea0600a6114a7565b6000610eac600a6114bd565b9050610eb884826114cb565b610ec28184611699565b610ecc818561170d565b8091505092915050565b6000600560008473ffffffffffffffffffffffffffffffffffffffff1673ffffffffffffffffffffffffffffffffffffffff16815260200190815260200160002060008373ffffffffffffffffffffffffffffffffffffffff1673ffffffffffffffffffffffffffffffffffffffff16815260200190815260200160002060009054906101000a900460ff16905092915050565b60007f780e9d63000000000000000000000000000000000000000000000000000000007bffffffffffffffffffffffffffffffffffffffffffffffffffffffff1916827bffffffffffffffffffffffffffffffffffffffffffffffffffffffff19161480610fdd5750610fdc826117a3565b5b9050919050565b60008073ffffffffffffffffffffffffffffffffffffffff166002600084815260200190815260200160002060009054906101000a900473ffffffffffffffffffffffffffffffffffffffff1673ffffffffffffffffffffffffffffffffffffffff1614159050919050565b600033905090565b816004600083815260200190815260200160002060006101000a81548173ffffffffffffffffffffffffffffffffffffffff021916908373ffffffffffffffffffffffffffffffffffffffff160217905550808273ffffffffffffffffffffffffffffffffffffffff166110cb836108d9565b73ffffffffffffffffffffffffffffffffffffffff167f8c5be1e5ebec7d5bd14f71427d1e84f3dd0314c0f7b2291e5b200ac8c7c3b92560405160405180910390a45050565b600061111c82610fe4565b61115b576040517f08c379a000000000000000000000000000000000000000000000000000000000815260040161115290612d14565b60405180910390fd5b6000611166836108d9565b90508073ffffffffffffffffffffffffffffffffffffffff168473ffffffffffffffffffffffffffffffffffffffff1614806111d557508373ffffffffffffffffffffffffffffffffffffffff166111bd84610573565b73ffffffffffffffffffffffffffffffffffffffff16145b806111e657506111e58185610ed6565b5b91505092915050565b8273ffffffffffffffffffffffffffffffffffffffff1661120f826108d9565b73ffffffffffffffffffffffffffffffffffffffff1614611265576040517f08c379a000000000000000000000000000000000000000000000000000000000815260040161125c90612df4565b60405180910390fd5b600073ffffffffffffffffffffffffffffffffffffffff168273ffffffffffffffffffffffffffffffffffffffff1614156112d5576040517f08c379a00000000000000000000000000000000000000000000000000000000081526004016112cc90612cd4565b60405180910390fd5b6112e0838383611885565b6112eb600082611058565b6001600360008573ffffffffffffffffffffffffffffffffffffffff1673ffffffffffffffffffffffffffffffffffffffff168152602001908152602001600020600082825461133b9190612ff8565b925050819055506001600360008473ffffffffffffffffffffffffffffffffffffffff1673ffffffffffffffffffffffffffffffffffffffff16815260200190815260200160002060008282546113929190612fa2565b92505081905550816002600083815260200190815260200160002060006101000a81548173ffffffffffffffffffffffffffffffffffffffff021916908373ffffffffffffffffffffffffffffffffffffffff160217905550808273ffffffffffffffffffffffffffffffffffffffff168473ffffffffffffffffffffffffffffffffffffffff167fddf252ad1be2c89b69c2b068fc378daa952ba7f163c4a11628f55a4df523b3ef60405160405180910390a4505050565b6114568484846111ef565b61146284848484611895565b6114a1576040517f08c379a000000000000000000000000000000000000000000000000000000000815260040161149890612c94565b60405180910390fd5b50505050565b6001816000016000828254019250508190555050565b600081600001549050919050565b600073ffffffffffffffffffffffffffffffffffffffff168273ffffffffffffffffffffffffffffffffffffffff16141561153b576040517f08c379a000000000000000000000000000000000000000000000000000000000815260040161153290612db4565b60405180910390fd5b61154481610fe4565b15611584576040517f08c379a000000000000000000000000000000000000000000000000000000000815260040161157b90612cb4565b60405180910390fd5b61159060008383611885565b6001600360008473ffffffffffffffffffffffffffffffffffffffff1673ffffffffffffffffffffffffffffffffffffffff16815260200190815260200160002060008282546115e09190612fa2565b92505081905550816002600083815260200190815260200160002060006101000a81548173ffffffffffffffffffffffffffffffffffffffff021916908373ffffffffffffffffffffffffffffffffffffffff160217905550808273ffffffffffffffffffffffffffffffffffffffff16600073ffffffffffffffffffffffffffffffffffffffff167fddf252ad1be2c89b69c2b068fc378daa952ba7f163c4a11628f55a4df523b3ef60405160405180910390a45050565b6116a282610fe4565b6116e1576040517f08c379a00000000000000000000000000000000000000000000000000000000081526004016116d890612d94565b60405180910390fd5b80600c60008481526020019081526020016000209080519060200190611708929190611f72565b505050565b600b60008273ffffffffffffffffffffffffffffffffffffffff1673ffffffffffffffffffffffffffffffffffffffff168152602001908152602001600020600001600c600084815260200190815260200160002090806001815401808255809150506001900390600052602060002001600090919091909150908054611793906130e2565b61179e929190611ff8565b505050565b60007f80ac58cd000000000000000000000000000000000000000000000000000000007bffffffffffffffffffffffffffffffffffffffffffffffffffffffff1916827bffffffffffffffffffffffffffffffffffffffffffffffffffffffff1916148061186e57507f5b5e139f000000000000000000000000000000000000000000000000000000007bffffffffffffffffffffffffffffffffffffffffffffffffffffffff1916827bffffffffffffffffffffffffffffffffffffffffffffffffffffffff1916145b8061187e575061187d82611a64565b5b9050919050565b611890838383611ace565b505050565b60006118b68473ffffffffffffffffffffffffffffffffffffffff16611be2565b15611a57578373ffffffffffffffffffffffffffffffffffffffff1663150b7a026118df611050565b8786866040518563ffffffff167c010000000000000000000000000000000000000000000000000000000002815260040161191d9493929190612bbb565b602060405180830381600087803b15801561193757600080fd5b505af192505050801561196857506040513d601f19601f8201168201806040525081019061196591906123ff565b60015b6119eb573d8060008114611998576040519150601f19603f3d011682016040523d82523d6000602084013e61199d565b606091505b506000815114156119e3576040517f08c379a00000000000000000000000000000000000000000000000000000000081526004016119da90612c94565b60405180910390fd5b805181602001fd5b63150b7a027c0100000000000000000000000000000000000000000000000000000000027bffffffffffffffffffffffffffffffffffffffffffffffffffffffff1916817bffffffffffffffffffffffffffffffffffffffffffffffffffffffff191614915050611a5c565b600190505b949350505050565b60007f01ffc9a7000000000000000000000000000000000000000000000000000000007bffffffffffffffffffffffffffffffffffffffffffffffffffffffff1916827bffffffffffffffffffffffffffffffffffffffffffffffffffffffff1916149050919050565b611ad9838383611bf5565b600073ffffffffffffffffffffffffffffffffffffffff168373ffffffffffffffffffffffffffffffffffffffff161415611b1c57611b1781611bfa565b611b5b565b8173ffffffffffffffffffffffffffffffffffffffff168373ffffffffffffffffffffffffffffffffffffffff1614611b5a57611b598382611c43565b5b5b600073ffffffffffffffffffffffffffffffffffffffff168273ffffffffffffffffffffffffffffffffffffffff161415611b9e57611b9981611db0565b611bdd565b8273ffffffffffffffffffffffffffffffffffffffff168273ffffffffffffffffffffffffffffffffffffffff1614611bdc57611bdb8282611ef3565b5b5b505050565b600080823b905060008111915050919050565b505050565b6008805490506009600083815260200190815260200160002081905550600881908060018154018082558091505060019003906000526020600020016000909190919091505550565b60006001611c508461098b565b611c5a9190612ff8565b9050600060076000848152602001908152602001600020549050818114611d3f576000600660008673ffffffffffffffffffffffffffffffffffffffff1673ffffffffffffffffffffffffffffffffffffffff168152602001908152602001600020600084815260200190815260200160002054905080600660008773ffffffffffffffffffffffffffffffffffffffff1673ffffffffffffffffffffffffffffffffffffffff168152602001908152602001600020600084815260200190815260200160002081905550816007600083815260200190815260200160002081905550505b6007600084815260200190815260200160002060009055600660008573ffffffffffffffffffffffffffffffffffffffff1673ffffffffffffffffffffffffffffffffffffffff16815260200190815260200160002060008381526020019081526020016000206000905550505050565b60006001600880549050611dc49190612ff8565b9050600060096000848152602001908152602001600020549050600060088381548110611e1a577f4e487b7100000000000000000000000000000000000000000000000000000000600052603260045260246000fd5b906000526020600020015490508060088381548110611e62577f4e487b7100000000000000000000000000000000000000000000000000000000600052603260045260246000fd5b906000526020600020018190555081600960008381526020019081526020016000208190555060096000858152602001908152602001600020600090556008805480611ed7577f4e487b7100000000000000000000000000000000000000000000000000000000600052603160045260246000fd5b6001900381819060005260206000200160009055905550505050565b6000611efe8361098b565b905081600660008573ffffffffffffffffffffffffffffffffffffffff1673ffffffffffffffffffffffffffffffffffffffff168152602001908152602001600020600083815260200190815260200160002081905550806007600084815260200190815260200160002081905550505050565b828054611f7e906130e2565b90600052602060002090601f016020900481019282611fa05760008555611fe7565b82601f10611fb957805160ff1916838001178555611fe7565b82800160010185558215611fe7579182015b82811115611fe6578251825591602001919060010190611fcb565b5b509050611ff49190612085565b5090565b828054612004906130e2565b90600052602060002090601f0160209004810192826120265760008555612074565b82601f106120375780548555612074565b8280016001018555821561207457600052602060002091601f016020900482015b82811115612073578254825591600101919060010190612058565b5b5090506120819190612085565b5090565b5b8082111561209e576000816000905550600101612086565b5090565b60006120b56120b084612ec0565b612e8f565b9050828152602081018484840111156120cd57600080fd5b6120d88482856130a0565b509392505050565b60006120f36120ee84612ef0565b612e8f565b90508281526020810184848401111561210b57600080fd5b6121168482856130a0565b509392505050565b60008135905061212d816131b2565b92915050565b600081359050612142816131c9565b92915050565b600081359050612157816131e0565b92915050565b60008151905061216c816131e0565b92915050565b600082601f83011261218357600080fd5b81356121938482602086016120a2565b91505092915050565b600082601f8301126121ad57600080fd5b81356121bd8482602086016120e0565b91505092915050565b6000813590506121d5816131f7565b92915050565b6000602082840312156121ed57600080fd5b60006121fb8482850161211e565b91505092915050565b6000806040838503121561221757600080fd5b60006122258582860161211e565b92505060206122368582860161211e565b9150509250929050565b60008060006060848603121561225557600080fd5b60006122638682870161211e565b93505060206122748682870161211e565b9250506040612285868287016121c6565b9150509250925092565b600080600080608085870312156122a557600080fd5b60006122b38782880161211e565b94505060206122c48782880161211e565b93505060406122d5878288016121c6565b925050606085013567ffffffffffffffff8111156122f257600080fd5b6122fe87828801612172565b91505092959194509250565b6000806040838503121561231d57600080fd5b600061232b8582860161211e565b925050602061233c85828601612133565b9150509250929050565b6000806040838503121561235957600080fd5b60006123678582860161211e565b925050602083013567ffffffffffffffff81111561238457600080fd5b6123908582860161219c565b9150509250929050565b600080604083850312156123ad57600080fd5b60006123bb8582860161211e565b92505060206123cc858286016121c6565b9150509250929050565b6000602082840312156123e857600080fd5b60006123f684828501612148565b91505092915050565b60006020828403121561241157600080fd5b600061241f8482850161215d565b91505092915050565b60006020828403121561243a57600080fd5b6000612448848285016121c6565b91505092915050565b600061245d8383612531565b905092915050565b61246e8161302c565b82525050565b600061247f82612f30565b6124898185612f5e565b93508360208202850161249b85612f20565b8060005b858110156124d757848403895281516124b88582612451565b94506124c383612f51565b925060208a0199505060018101905061249f565b50829750879550505050505092915050565b6124f28161303e565b82525050565b600061250382612f3b565b61250d8185612f6f565b935061251d8185602086016130af565b612526816131a1565b840191505092915050565b600061253c82612f46565b6125468185612f80565b93506125568185602086016130af565b61255f816131a1565b840191505092915050565b600061257582612f46565b61257f8185612f91565b935061258f8185602086016130af565b612598816131a1565b840191505092915050565b60006125b0602b83612f91565b91507f455243373231456e756d657261626c653a206f776e657220696e646578206f7560008301527f74206f6620626f756e64730000000000000000000000000000000000000000006020830152604082019050919050565b6000612616603283612f91565b91507f4552433732313a207472616e7366657220746f206e6f6e20455243373231526560008301527f63656976657220696d706c656d656e74657200000000000000000000000000006020830152604082019050919050565b600061267c601c83612f91565b91507f4552433732313a20746f6b656e20616c7265616479206d696e746564000000006000830152602082019050919050565b60006126bc602483612f91565b91507f4552433732313a207472616e7366657220746f20746865207a65726f2061646460008301527f72657373000000000000000000000000000000000000000000000000000000006020830152604082019050919050565b6000612722601983612f91565b91507f4552433732313a20617070726f766520746f2063616c6c6572000000000000006000830152602082019050919050565b6000612762602c83612f91565b91507f4552433732313a206f70657261746f7220717565727920666f72206e6f6e657860008301527f697374656e7420746f6b656e00000000000000000000000000000000000000006020830152604082019050919050565b60006127c8603883612f91565b91507f4552433732313a20617070726f76652063616c6c6572206973206e6f74206f7760008301527f6e6572206e6f7220617070726f76656420666f7220616c6c00000000000000006020830152604082019050919050565b600061282e602a83612f91565b91507f4552433732313a2062616c616e636520717565727920666f7220746865207a6560008301527f726f2061646472657373000000000000000000000000000000000000000000006020830152604082019050919050565b6000612894602983612f91565b91507f4552433732313a206f776e657220717565727920666f72206e6f6e657869737460008301527f656e7420746f6b656e00000000000000000000000000000000000000000000006020830152604082019050919050565b60006128fa602e83612f91565b91507f45524337323155524953746f726167653a2055524920736574206f66206e6f6e60008301527f6578697374656e7420746f6b656e0000000000000000000000000000000000006020830152604082019050919050565b6000612960602083612f91565b91507f4552433732313a206d696e7420746f20746865207a65726f20616464726573736000830152602082019050919050565b60006129a0602c83612f91565b91507f4552433732313a20617070726f76656420717565727920666f72206e6f6e657860008301527f697374656e7420746f6b656e00000000000000000000000000000000000000006020830152604082019050919050565b6000612a06602983612f91565b91507f4552433732313a207472616e73666572206f6620746f6b656e2074686174206960008301527f73206e6f74206f776e00000000000000000000000000000000000000000000006020830152604082019050919050565b6000612a6c602183612f91565b91507f4552433732313a20617070726f76616c20746f2063757272656e74206f776e6560008301527f72000000000000000000000000000000000000000000000000000000000000006020830152604082019050919050565b6000612ad2603183612f91565b91507f4552433732313a207472616e736665722063616c6c6572206973206e6f74206f60008301527f776e6572206e6f7220617070726f7665640000000000000000000000000000006020830152604082019050919050565b6000612b38602c83612f91565b91507f455243373231456e756d657261626c653a20676c6f62616c20696e646578206f60008301527f7574206f6620626f756e647300000000000000000000000000000000000000006020830152604082019050919050565b612b9a81613096565b82525050565b6000602082019050612bb56000830184612465565b92915050565b6000608082019050612bd06000830187612465565b612bdd6020830186612465565b612bea6040830185612b91565b8181036060830152612bfc81846124f8565b905095945050505050565b6000604082019050612c1c6000830185612465565b8181036020830152612c2e8184612474565b90509392505050565b6000602082019050612c4c60008301846124e9565b92915050565b60006020820190508181036000830152612c6c818461256a565b905092915050565b60006020820190508181036000830152612c8d816125a3565b9050919050565b60006020820190508181036000830152612cad81612609565b9050919050565b60006020820190508181036000830152612ccd8161266f565b9050919050565b60006020820190508181036000830152612ced816126af565b9050919050565b60006020820190508181036000830152612d0d81612715565b9050919050565b60006020820190508181036000830152612d2d81612755565b9050919050565b60006020820190508181036000830152612d4d816127bb565b9050919050565b60006020820190508181036000830152612d6d81612821565b9050919050565b60006020820190508181036000830152612d8d81612887565b9050919050565b60006020820190508181036000830152612dad816128ed565b9050919050565b60006020820190508181036000830152612dcd81612953565b9050919050565b60006020820190508181036000830152612ded81612993565b9050919050565b60006020820190508181036000830152612e0d816129f9565b9050919050565b60006020820190508181036000830152612e2d81612a5f565b9050919050565b60006020820190508181036000830152612e4d81612ac5565b9050919050565b60006020820190508181036000830152612e6d81612b2b565b9050919050565b6000602082019050612e896000830184612b91565b92915050565b6000604051905081810181811067ffffffffffffffff82111715612eb657612eb5613172565b5b8060405250919050565b600067ffffffffffffffff821115612edb57612eda613172565b5b601f19601f8301169050602081019050919050565b600067ffffffffffffffff821115612f0b57612f0a613172565b5b601f19601f8301169050602081019050919050565b6000819050602082019050919050565b600081519050919050565b600081519050919050565b600081519050919050565b6000602082019050919050565b600082825260208201905092915050565b600082825260208201905092915050565b600082825260208201905092915050565b600082825260208201905092915050565b6000612fad82613096565b9150612fb883613096565b9250827fffffffffffffffffffffffffffffffffffffffffffffffffffffffffffffffff03821115612fed57612fec613114565b5b828201905092915050565b600061300382613096565b915061300e83613096565b92508282101561302157613020613114565b5b828203905092915050565b600061303782613076565b9050919050565b60008115159050919050565b60007fffffffff0000000000000000000000000000000000000000000000000000000082169050919050565b600073ffffffffffffffffffffffffffffffffffffffff82169050919050565b6000819050919050565b82818337600083830152505050565b60005b838110156130cd5780820151818401526020810190506130b2565b838111156130dc576000848401525b50505050565b600060028204905060018216806130fa57607f821691505b6020821081141561310e5761310d613143565b5b50919050565b7f4e487b7100000000000000000000000000000000000000000000000000000000600052601160045260246000fd5b7f4e487b7100000000000000000000000000000000000000000000000000000000600052602260045260246000fd5b7f4e487b7100000000000000000000000000000000000000000000000000000000600052604160045260246000fd5b6000601f19601f8301169050919050565b6131bb8161302c565b81146131c657600080fd5b50565b6131d28161303e565b81146131dd57600080fd5b50565b6131e98161304a565b81146131f457600080fd5b50565b61320081613096565b811461320b57600080fd5b5056fea2646970667358221220e255f8087da01ac26715d2fea9add4f4f7c80fa21de429e06e2ce08e38fe7ad664736f6c63430008000033",
  "immutableReferences": {},
  "source": "pragma solidity 0.8.0;\r\n\r\nimport \"@openzeppelin/contracts/token/ERC721/ERC721.sol\";\r\nimport \"@openzeppelin/contracts/token/ERC721/extensions/ERC721Enumerable.sol\";\r\nimport \"@openzeppelin/contracts/utils/Counters.sol\";\r\n\r\n\r\ncontract SmartContract is ERC721,ERC721Enumerable {\r\n    using Counters for Counters.Counter;\r\n    Counters.Counter private _tokenIds;\r\n\r\n    struct NFTTokenIds {\r\n        string[] tokenIds;\r\n    }\r\n\r\n    mapping(address=>NFTTokenIds) ownerNFTs;\r\n    mapping(uint256 => string) private _tokenURIs;\r\n\r\n    constructor() ERC721(\"Smart Contract\",\"SC\"){}\r\n\r\n    function mint(address minterAddress,string memory _tokenURI) public payable returns(uint256) {\r\n        require(msg.value >= 0.001 ether);\r\n        _tokenIds.increment();\r\n        uint256 _newItemId = _tokenIds.current();\r\n        _mint(minterAddress,_newItemId);\r\n        _setTokenURI(_newItemId,_tokenURI);\r\n        addNFTstoOwner(_newItemId,minterAddress);\r\n        return _newItemId;\r\n    }\r\n\r\n    function addNFTstoOwner(uint256 _tokenId,address _minterAddress) private {\r\n        ownerNFTs[_minterAddress].tokenIds.push(_tokenURIs[_tokenId]);\r\n    }\r\n\r\n    function getOwnerNFTs(address _minterAddress) public view returns(address,string[] memory) {\r\n        return(_minterAddress,ownerNFTs[_minterAddress].tokenIds);\r\n    }\r\n\r\n    function _setTokenURI(uint256 tokenId, string memory _tokenURI) internal virtual {\r\n        require(_exists(tokenId), \"ERC721URIStorage: URI set of nonexistent token\");\r\n        _tokenURIs[tokenId] = _tokenURI;\r\n    }\r\n\r\n\r\n    function supportsInterface(bytes4 interfaceId) public view virtual override(ERC721, ERC721Enumerable) returns (bool) {\r\n        return super.supportsInterface(interfaceId);\r\n    }\r\n\r\n    function _beforeTokenTransfer(\r\n        address from,\r\n        address to,\r\n        uint256 tokenId\r\n    ) internal virtual override(ERC721, ERC721Enumerable) {\r\n        super._beforeTokenTransfer(from, to, tokenId);\r\n    }\r\n    \r\n    function tokenURI(uint256 _tokenId) public view override returns (string memory) {\r\n        return _tokenURIs[_tokenId];\r\n    }\r\n\r\n}",
  "sourcePath": "F:\\Blockchain\\NFT-project\\contracts\\SmartContract.sol",
  "compiler": {
    "name": "solc",
    "version": "0.8.0+commit.c7dfd78e.Emscripten.clang"
  },
  "schemaVersion": "3.4.3",
  "updatedAt": "2021-09-11T12:44:19.252Z",
  "networkType": "ethereum",
  "devdoc": {
    "kind": "dev",
    "methods": {
      "approve(address,uint256)": {
        "details": "See {IERC721-approve}."
      },
      "balanceOf(address)": {
        "details": "See {IERC721-balanceOf}."
      },
      "getApproved(uint256)": {
        "details": "See {IERC721-getApproved}."
      },
      "isApprovedForAll(address,address)": {
        "details": "See {IERC721-isApprovedForAll}."
      },
      "name()": {
        "details": "See {IERC721Metadata-name}."
      },
      "ownerOf(uint256)": {
        "details": "See {IERC721-ownerOf}."
      },
      "safeTransferFrom(address,address,uint256)": {
        "details": "See {IERC721-safeTransferFrom}."
      },
      "safeTransferFrom(address,address,uint256,bytes)": {
        "details": "See {IERC721-safeTransferFrom}."
      },
      "setApprovalForAll(address,bool)": {
        "details": "See {IERC721-setApprovalForAll}."
      },
      "symbol()": {
        "details": "See {IERC721Metadata-symbol}."
      },
      "tokenByIndex(uint256)": {
        "details": "See {IERC721Enumerable-tokenByIndex}."
      },
      "tokenOfOwnerByIndex(address,uint256)": {
        "details": "See {IERC721Enumerable-tokenOfOwnerByIndex}."
      },
      "totalSupply()": {
        "details": "See {IERC721Enumerable-totalSupply}."
      },
      "transferFrom(address,address,uint256)": {
        "details": "See {IERC721-transferFrom}."
      }
    },
    "version": 1
  },
  "userdoc": {
    "kind": "user",
    "methods": {},
    "version": 1
  }
}